{
  "contractName": "certificate",
  "abi": [
    {
      "inputs": [],
      "payable": false,
      "stateMutability": "nonpayable",
      "type": "constructor"
    },
    {
      "constant": false,
      "inputs": [
        {
          "name": "has",
          "type": "string"
        }
      ],
      "name": "generate_certificate",
      "outputs": [],
      "payable": false,
      "stateMutability": "nonpayable",
      "type": "function"
    },
    {
      "constant": false,
      "inputs": [],
      "name": "get_hash",
      "outputs": [
        {
          "name": "",
          "type": "string"
        }
      ],
      "payable": false,
      "stateMutability": "nonpayable",
      "type": "function"
    }
  ],
  "bytecode": "0x6060604052341561000f57600080fd5b33600160006101000a81548173ffffffffffffffffffffffffffffffffffffffff021916908373ffffffffffffffffffffffffffffffffffffffff16021790555061033f8061005f6000396000f30060606040526004361061004c576000357c0100000000000000000000000000000000000000000000000000000000900463ffffffff1680632dc06f351461005157806395e8f3e7146100ae575b600080fd5b341561005c57600080fd5b6100ac600480803590602001908201803590602001908080601f0160208091040260200160405190810160405280939291908181526020018383808284378201915050505050509190505061013c565b005b34156100b957600080fd5b6100c16101b2565b6040518080602001828103825283818151815260200191508051906020019080838360005b838110156101015780820151818401526020810190506100e6565b50505050905090810190601f16801561012e5780820380516001836020036101000a031916815260200191505b509250505060405180910390f35b3373ffffffffffffffffffffffffffffffffffffffff16600160009054906101000a900473ffffffffffffffffffffffffffffffffffffffff1673ffffffffffffffffffffffffffffffffffffffff1614151561019857600080fd5b80600090805190602001906101ae92919061025a565b5050565b6101ba6102da565b60008054600181600116156101000203166002900480601f0160208091040260200160405190810160405280929190818152602001828054600181600116156101000203166002900480156102505780601f1061022557610100808354040283529160200191610250565b820191906000526020600020905b81548152906001019060200180831161023357829003601f168201915b5050505050905090565b828054600181600116156101000203166002900490600052602060002090601f016020900481019282601f1061029b57805160ff19168380011785556102c9565b828001600101855582156102c9579182015b828111156102c85782518255916020019190600101906102ad565b5b5090506102d691906102ee565b5090565b602060405190810160405280600081525090565b61031091905b8082111561030c5760008160009055506001016102f4565b5090565b905600a165627a7a723058208f94d8438d0b86e17512b8376aa0dc813bc19b0069e919500445516864634c7a0029",
  "source": "pragma solidity ^0.4.0;\n\n\ncontract certificate {\n    \n\n    \n    string hash;\n    address owner;\n    \n    function certificate (){\n        \n       owner = msg.sender;\n        \n    }\n    \n    modifier isowner(){\n        \n        require(owner == msg.sender);\n        _;\n        \n    }\n    \n    \n    function generate_certificate(string has) isowner {\n        \n        hash = has;\n        \n    }\n    \n    function get_hash() public returns(string) {\n        \n        return hash;\n        \n    }\n    \n    \n    \n    \n}\n",
  "sourcePath": "/Users/Hari/Desktop/certificates/contracts/certificates.sol",
  "compiler": {
    "name": "solc",
    "version": "0.4.19+commit.c4cbbb05.Emscripten.clang"
  },
  "schemaVersion": "2.0.0",
  "updatedAt": "2018-03-30T13:43:55.648Z"
}